:020000040800F2
:1000000000000220119400086D9100086F91000813
:1000100071910008739100087591000800000000BC
:1000200000000000000000000000000077910008C0
:1000300079910008000000007B9100087D91000884
:1000400061940008619400086194000861940008BC
:1000500061940008619400086194000861940008AC
:10006000619400086194000861940008619400089C
:10007000619400086194000861940008619400088C
:10008000619400086194000861940008619400087C
:10009000619400086194000861940008619400086C
:1000A000619400086194000861940008619400085C
:1000B000619400086194000861940008619400084C
:1000C000619400086194000861940008619400083C
:1000D0006194000855920008B19200080D93000841
:1000E000619400086194000861940008619400081C
:1000F000619400086194000861940008619400080C
:1001000061940008619400086194000861940008FB
:1001100061940008619400086194000861940008EB
:1001200061940008619400086194000861940008DB
:1001300061940008619400086194000861940008CB
:1001400061940008619400086194000861940008BB
:1001500061940008619400086194000869930008A4
:10016000619400086194000861940008619400089B
:100170006194000861940008619400080000000088
:0801800061940008619400087D
:1001880010B5054C237833B9044B13B10448AFF3C9
:1001980000800123237010BD28000020000000000B
:1001A800E094000808B5034B1BB103490348AFF3BB
:1001B800008008BD000000002C000020E09400082A
:1001C80053B94AB9002908BF00281CBF4FF0FF31B6
:1001D8004FF0FF3000F07AB9ADF1080C6DE904CEAC
:1001E80000F006F8DDF804E0DDE9022304B070470A
:1001F8002DE9F0478C460D460446089E002B51D148
:100208008A4217466DD9B2FA82FEBEF1000F0BD0B2
:10021800CEF1200C01FA0EF520FA0CFC02FA0EF7CA
:100228004CEA050C00FA0EF44FEA174A250CBCFB01
:10023800FAF81FFA87F90AFB18CC45EA0C4508FBBF
:1002480009F3AB420AD9ED1908F1FF3280F0238196
:10025800AB4240F22081A8F102083D44ED1AA4B255
:10026800B5FBFAF00AFB105544EA054400FB09F90E
:10027800A14509D9E41900F1FF3380F00A81A145AD
:1002880040F2078102383C44A4EB090440EA0840E4
:100298000021002E61D024FA0EF40023346073602C
:1002A800BDE8F0878B4207D9002E54D0002186E89C
:1002B80021000846BDE8F087B3FA83F1002940F031
:1002C8008E80AB4202D3824200F2FA80841A65EB38
:1002D80003050120AC46002E3FD086E81010BDE88B
:1002E800F08712B90127B7FBF2F7B7FA87FEBEF11C
:1002F800000F34D1EB1B3A0C1FFA87FC0121B3FB2A
:10030800F2F8250C02FB183345EA03450CFB08F309
:10031800AB4207D9ED1908F1FF3002D2AB4200F227
:10032800D1808046ED1AA3B2B5FBF2F002FB10555E
:1003380043EA05440CFB00FCA44507D9E41900F185
:10034800FF3302D2A44500F2B8801846A4EB0C048F
:1003580040EA08409DE731463046BDE8F087CEF1D7
:10036800200405FA0EF307FA0EF720FA04F83A0CFF
:1003780025FA04F448EA0308B4FBF2F14FEA1845F9
:1003880002FB11441FFA87FC45EA044501FB0CF304
:10039800AB4200FA0EF409D9ED1901F1FF3080F0F3
:1003A8008A80AB4240F2878002393D44EB1A1FFA3B
:1003B80088F5B3FBF2F002FB103345EA034500FB76
:1003C8000CF3AB4207D9ED1900F1FF386FD2AB42FD
:1003D8006DD902383D44EB1A40EA01418FE7C1F17B
:1003E800200722FA07F88B4005FA01F448EA0303CC
:1003F80020FA07FE4FEA134CFD404EEA040EB5FB07
:10040800FCF94FEA1E440CFB19551FFA83F844EA1D
:10041800054509FB08F4AC4202FA01F200FA01FAB8
:1004280008D9ED1809F1FF3043D2AC4241D9A9F1FE
:1004380002091D442D1B1FFA8EFEB5FBFCF00CFBB8
:1004480010554EEA054400FB08F8A04507D9E41802
:1004580000F1FF3529D2A04527D902381C4440EACB
:100468000940A4EB0804A0FB02894C45C6464D464A
:1004780015D312D056B1BAEB0E0364EB050404FA97
:1004880007F7CB401F43CC40376074600021BDE8BC
:10049800F0871846F8E69046E0E6C245EAD2B8EB9F
:1004A800020E69EB03050138E4E72846D7E7404622
:1004B80091E78146BEE7014678E702383C4445E7C4
:1004C800084608E7A8F102083D442BE7704700BF3B
:1004D80038B50E4A0E4B054618784FF47A73B3FBBD
:1004E800F0F31068B0FBF3F000F0D0F8044658B908
:1004F8000F2D09D8024629464FF0FF3000F084F846
:10050800044B20461D6038BD012038BD2400002062
:10051800000000200400002008B50B4B1A6842F4C4
:1005280000721A601A6842F480621A601A6842F40B
:1005380080721A60032000F055F80020FFF7C8FF0A
:1005480008F040FC002008BD003C0240124A134B52
:1005580011681B7812480B44124913600B68026833
:1005680001330132B3F57A7F02600B600E4A04DD75
:1005780013680133136000230B6013683C2B0B4B8B
:1005880004DD196801311960002111601A683C2ADC
:10059800C4BF00221A6070475401002000000020E8
:1005A800500100205C010020580100208C00002030
:1005B800014B1868704700BF5401002038B5044645
:1005C800FFF7F6FF631C1CBF054B1B78054618BFD9
:1005D800E418FFF7EDFF401B8442FAD838BD00BF8E
:1005E80000000020074AD36823F4E0631B041B0CB7
:1005F80043F0BF63000243F4003300F4E0600343B8
:10060800D360704700ED00E0174B30B5DC68C4F3E9
:100618000224C4F10703251D042B28BF0423062D3B
:100628004FF0010505FA03F303F1FF338CBF033CD8
:1006380000241940A14005FA04F4013C2240002896
:1006480042EA01024FEA0212ADBF00F1604000F039
:100658000F00064B00F56140B5BFD2B2D2B21A54B2
:1006680080F8002330BD00BF00ED00E014ED00E08D
:10067800002808DB4209012300F01F0003FA00F0FC
:10068800014B43F82200704700E100E00138B0F167
:10069800807F0AD2064B074A5860F02182F823105F
:1006A8000020072298601A6070470120704700BF39
:1006B80010E000E000ED00E010B5044660B14379B9
:1006C80003F0FF0213B9027108F09CFB0223637167
:1006D80001236371002010BD012010BD022310B555
:1006E800437103689C6844F001049C6001EB82023A
:1006F800914204D11B6801224271184610BD51F87D
:10070800044B1C60F4E790F83530022B03D08023AB
:100718004365012070470268052380F83530136867
:1007280023F0010313600020704700002DE9F04F0B
:1007380085B00B68DFF8AC81684ADFF8AC910193AB
:1007480000234FF0010E019C0EFA03FE0EEA040688
:10075800B64540F0AE804C6824F01007022F16D141
:100768004FEAD30A00EB8A0A03F0070BDAF82050A5
:100778004FEA8B0B4FF00F0C0CFA0BFC25EA0C0C14
:100788000D6905FA0BF545EA0C05CAF820504FEA41
:10079800430A0325D0F800B005FA0AF5ED4304F042
:1007A800030C0BEA050B0CFA0AFC013F4CEA0B0C94
:1007B800012FC0F800C011D8876807EA050BCF6879
:1007C80007FA0AFC4CEA0B078760476827EA0E0E0F
:1007D800C4F300179F4047EA0E074760C7683D40CB
:1007E8008F6807FA0AF73D43C560E50061D54FF009
:1007F800000BCDF80CB0D8F84470394D47F4804759
:10080800C8F84470D8F8447007F480470397039FEA
:1008180023F0030707F1804707F59C3703F0030C23
:10082800D7F808A04FEA8C0C4FF00F0E0EFA0CFE0A
:10083800A8422AEA0E0E43D005F58065A84241D0A9
:1008480005F58065A8423FD005F58065A8423DD0F2
:1008580005F58065A8423BD048453BD005F50065C5
:10086800A84239D005F58065A84214BF0825072598
:1008780005FA0CF545EA0E05BD601568F74314F452
:10088800803F0CBF3D4035431560556814F4003F68
:100898000CBF3D4035435560956814F4801F0CBF6C
:1008A8003D4035439560D568A40254BF3D4035436B
:1008B800D5600133102B7FF444AF05B0BDE8F08F4D
:1008C8005D46D5E70125D3E70225D1E70325CFE724
:1008D8000425CDE70525CBE70625C9E7003C0140FF
:1008E8000000024000380240001402400369194227
:1008F80014BF0120002070470AB1816170470904C4
:10090800FBE7436931EA030308BF090481617047C3
:1009180001684B6913F480634FF0000210D06FF444
:1009280080634B612023026380F83D3080F83E20CD
:10093800036C80F83C2043F00403036401207047F3
:10094800184670472DE9F843044617469946C1F3FF
:1009580007488EB22568B8F1010F0CBF6B69AB6907
:1009680036EA030314BF0120002008B9BDE8F88364
:100978006B695A0516D52B6843F400732B606FF426
:1009880080636B6120220023236384F83D2084F870
:100998003E30226C42F00402226484F83C3001208C
:1009A800BDE8F8837B1CD5D0FFF702FEA0EB090059
:1009B800874201D3002FCDD100232022236384F85E
:1009C8003D2084F83E30226C42F02002E4E770B506
:1009D80004460D46164623685B695B0701D500206F
:1009E80070BD2046FFF794FFA8B96A1CF3D0FFF743
:1009F800DFFD801B854201D3002DECD1002320228E
:100A0800236384F83D2084F83E30226C84F83C301F
:100A180042F020022264012070BD70B504460D46E4
:100A280016462068436913F0400301D0002070BDCA
:100A38004269D2060ED56FF010024261202223636C
:100A480084F83D2084F83E30226C226484F83C30DF
:100A5800012070BDFFF7ACFD801BA84201D8002D16
:100A6800DFD100232022236384F83D2084F83E3020
:100A7800226C42F02002E8E72DE9F843089E04467C
:100A880090461F46C1F307498DB22368B9F1010F9B
:100A98000CBF5B699B6935EA03030CBF0123002384
:100AA800434502D00020BDE8F8837B1CEDD0FFF75A
:100AB8007FFD801B874201D3002FE6D1002320222F
:100AC800236384F83D2084F83E30226C84F83C305F
:100AD80042F0200222640120BDE8F88370B5044684
:100AE8000D46164623685B691B0601D5002070BDBC
:100AF8002046FFF70DFFA8B96A1CF3D0FFF758FD91
:100B0800801B854201D3002DECD1002320222363D2
:100B180084F83D2084F83E30226C84F83C3042F062
:100B280020022264012070BD2DE9FF4115460268AC
:100B38000B9E9846136843F4807313600F46009623
:100B48000A9B00224FF001110446FFF795FF18B1E8
:100B5800012004B0BDE8F08123680A9A184907F01B
:100B6800FE071F6120463346FFF7ECFE0028EFD151
:100B7800236803905A6903929B69039332460A9942
:100B8800039B2046FFF7AAFF40B1236C042B01BF4B
:100B98002268136843F400731360D9E7B8F1010FB2
:100BA800236802D1EDB21D61D3E72A0A1A610A99B6
:100BB80032462046FFF792FF0028E6D12368F1E786
:100BC800020001002DE9FF41984603680B9D164677
:100BD8001A6842F480621A601A6842F480721A60D5
:100BE8000F4600950A9B00224FF001110446FFF7BB
:100BF80043FF18B1012004B0BDE8F08123682B49F8
:100C0800FFB207F0FE021A6120462B460A9AFFF748
:100C180099FE0028EED1236803905A6903929B69D4
:100C280003932A460A99039B2046FFF757FF40B1D2
:100C3800236C042B01BF2268136843F4007313600C
:100C4800D8E7B8F1010F236825D1F6B21E612A460C
:100C58000A992046FFF742FF02460028E8D121689A
:100C68000B6843F480730B60204600950A9B4FF095
:100C78000111FFF701FF0028BCD123680A9A0B492C
:100C880047F001071F6120462B46FFF75BFE003047
:100C980018BF0120AFE7320A1A610A992A4620468E
:100CA800FFF71CFF0028C3D12368CEE7020001002C
:100CB80070B5044608B9012070BD90F83D3003F0C6
:100CC800FF021BB980F83C2008F0B4F822682423FE
:100CD80084F83D30136823F00103136000F072FCC0
:100CE8006568414B9D424DD8404B9842E3D92268F4
:100CF8003F495368B0FBF1F123F03F030B435360C6
:100D0800136A23F03F03013119431162D169364B4D
:100D180021F44F419D4221F0FF0100F1FF3048D8F6
:100D28006D00B0FBF5F00130C0F30B03042B38BFA6
:100D380004230B43D3611168206AE36921F0C001E1
:100D480003430B4313609168E068236921F403416E
:100D5800034321F0FF010B439360D168A0696369E5
:100D680021F0FF0103430B43D360136843F00103F1
:100D7800136000202023206484F83D30206384F829
:100D88003E0070BD1B4B984295D92268184E536897
:100D9800B0FBF6F623F03F0333435360136A4FF476
:100DA8009671714323F03F034FF47A76B1FBF6F165
:100DB800A9E7A36853B905EB4503B0FBF3F0431C5F
:100DC800C3F30B036BB143F40043B2E719236B433E
:100DD800B0FBF3F0431CC3F30B0313B143F44043DC
:100DE800A7E70123A5E700BFA08601007F841E00B6
:100DF80040420F00FF083D002DE9F743044699469D
:100E08000F4690460C9EFFF7D3FB94F83D30202BFD
:100E1800054603D0022003B0BDE8F08300901923F3
:100E280001223B492046FFF727FE0028F2D194F81B
:100E38003C30012BEED0012384F83C3023681A683B
:100E4800D1075EBF1A6842F001021A601A6822F4DC
:100E580000621A60212384F83D30402384F83E3034
:100E6800002323640A9B6362BDF82C306385638D7D
:100E78002385284BE362019500964B464246394646
:100E88002046FFF751FE00282AD00120C3E7FFF7CC
:100E980025FE40B1236C042B01BF2268136843F47C
:100EA80000731360F1E7636A27681A4612F8011B9A
:100EB80039616262628D218D013A92B262857A69E6
:100EC800481E80B2520720850AD548B15A783A613F
:100ED80002336362638D013B02399BB221856385CE
:100EE800238D2A4631462046002BD0D1FFF76FFDCF
:100EF8000028CFD12268136843F4007313602023BD
:100F080084F83D3084F83C0084F83E0083E700BF55
:100F1800020010000000FFFF2DE9F043044687B0EF
:100F280099460D469046109FFFF742FB94F83D30D6
:100F3800202B064604D00225284607B0BDE8F083DA
:100F480000901923012277492046FFF795FD0028D4
:100F5800F1D194F83C30012BEDD0012384F83C30DA
:100F680023681A68D0075EBF1A6842F001021A6047
:100F78001A6822F400621A60222384F83D30402364
:100F880084F83E30002323640E9B6362BDF83C3036
:100F98006385638D2385644BE36229460196009738
:100FA8004B4642462046FFF70DFE054608B101258F
:100FB800C2E7228D236892B902905A6902929A690F
:100FC8000292029A1A6842F400721A60202384F886
:100FD8003D30002384F83E3084F83C30ACE7012AE9
:100FE8002CD11A6822F480621A6003905A6903921D
:100FF8009A690392039A1A6842F400721A60DFF839
:101008002C81238D002BE1D0032B6ED8012B2DD101
:10101800324639462046FFF700FD0028C7D122682E
:10102800636A12691A70636A01336362238D013B34
:101038002385638D013B9BB26385E2E7022A0ED1CB
:101048001A6822F480621A601A6842F400621A6010
:1010580004905A6904929B690493049BCFE7059016
:101068005A6905929B690593059BC8E7022B009670
:101078003B464FF000024146204619D1FFF7FCFCE1
:10108800002894D123681A6842F400721A60626AD0
:101098001B691370626A531C6362238D013B2385AD
:1010A800638D013B9BB2638523681B695370BAE764
:1010B800FFF7E2FC024600287FF479AF236819683D
:1010C80021F480611960616A1B690B70636A00967C
:1010D80001336362238D013B2385638D013B9BB202
:1010E800638541463B462046C8E732463946204696
:1010F800FFF793FC00287FF45AAF2268636A1269ED
:101108001A70626A531C6362238D013B2385638DC9
:10111800013B9BB263852368596949077FF571AF25
:10112800C3E700BF020010000000FFFF0400010039
:101138002DE9F341044618B9012002B0BDE8F08159
:101148000368DD0710D42368980758D423681A0762
:1011580000F19A8023685B0700F1B880A269002A31
:1011680040F019810020E8E7A64B9A6802F00C02CB
:10117800042A07D09A6802F00C02082A0AD15B6890
:10118800590207D59F4B1B689A03DCD56368002B6F
:10119800D9D1D1E763689B4DB3F5803F11D12B6856
:1011A80043F480332B60FFF703FA964D06462B680D
:1011B8009B03C8D4FFF7FCF9801B6428F7D90320E8
:1011C800BBE7B3F5A02F04D12B6843F480232B6031
:1011D800E5E72A6822F480322A602A6822F480220D
:1011E8002A60002BDFD1FFF7E3F906462B689F033F
:1011F800A9D5FFF7DDF9801B6428F7D9DFE7814B14
:101208009A6812F00C0F07D09A6802F00C02082AAC
:1012180011D15B685E020ED47A4B1A68950702D525
:10122800E268012A88D11A68216922F0F80242EAA4
:10123800C1021A608AE7E268734BB2B101221A60F0
:10124800FFF7B6F96F4D06462B68980707D52B6848
:10125800226923F0F80343EAC2032B6076E7FFF71D
:10126800A7F9801B0228EFD9A9E71A60FFF7A0F9B0
:10127800644D06462B6899077FF568AFFFF798F924
:10128800801B0228F6D99AE76269604B7AB101227D
:101298001A60FFF78DF95B4D06466B6F9F073FF5A8
:1012A80059AFFFF785F9801B0228F6D987E71A603E
:1012B800FFF77EF9534D06466B6F98077FF54AAFE7
:1012C800FFF776F9801B0228F6D978E74D4B1A6CA0
:1012D80012F0805228D101921A6C42F080521A649E
:1012E8001B6C03F080530193019B0126484D2B682A
:1012F800D9051BD5A368434D012B27D12B6F43F08C
:1013080001032B67FFF754F93E4D074641F2883831
:101318002B6F9B0739D5002E3FF420AF394A136C49
:1013280023F08053136419E70026DFE72B6843F4A2
:1013380080732B60FFF73CF907462B68DA05D9D490
:10134800FFF736F9C01B0228F7D938E7052B04D177
:101358002B6F43F004032B67D0E72A6F22F00102BA
:101368002A672A6F22F004022A67002BCAD1FFF7E6
:101378001FF941F2883807462B6F9807CBD5FFF73E
:1013880017F9C01B4045F7D919E7FFF711F9C01B3A
:101398004045BDD913E71B4DAB6803F00C03082B80
:1013A8003FF4CAAE1B4E0023022A336034D1FFF744
:1013B800FFF807462B6899011ED4226AE369134394
:1013C800626A43EA8213E26A43EA0263A26A0D4C44
:1013D8005208013A43EA02436B6001233360FFF786
:1013E800E7F8054623689A013FF5BCAEFFF7E0F839
:1013F800401B0228F6D9E2E6FFF7DAF8C01B0228FC
:10140800D8D9DCE60038024000004742800E474247
:101418000070004060004742FFF7CAF804462B6896
:101428009B017FF59FAEFFF7C3F8001B0228F6D992
:10143800C5E600BF134908B58B6803F00C03042BFD
:1014480003D0082B03D0104808BD104808BD4A68CF
:101458004B68496813F4800314BF0C480A48C1F369
:10146800881118BF002302F03F02A1FB0001FEF71C
:10147800A7FE044B5B68C3F3014301335B00B0FB79
:10148800F3F008BD003802400024F40000127A008E
:101498002DE9F0410D46044610B90120BDE8F08160
:1014A800444B1A6802F00F028A4228D321688F073A
:1014B8002DD4C80740D43F4B1A6802F00F0295425A
:1014C80066D3226851076CD4130707D53A4A2169B5
:1014D800936823F4604343EAC1039360FFF7AAFFCC
:1014E800354B364A9B68C3F30313D35CD840344B5F
:1014F80018600020FEF7ECFF0020BDE8F081CAB2BA
:101508001A701B6803F00F039942C6D1CEE72A4B25
:1015180011F0040F1EBF9A6842F4E0529A600E0759
:1015280042BF9A6842F460429A609A68A06822F0C2
:10153800F00202439A60BCE762681F4B012A1DD182
:101548001B6813F4003FA8D01B4EB36823F00303B5
:101558001343B360FFF72CF841F288380746B368A5
:10156800626803F00C03B3EB820FA4D0FFF720F8F6
:10157800C01B4045F3D90320BDE8F081911E012925
:101588001B6802D813F0007FDDE713F0020FDAE7DB
:10159800EAB21A701B6803F00F039D427FF47DAF17
:1015A8008FE70549E0688B6823F4E05303438B60B9
:1015B8008AE700BF003C0240003802401496000849
:1015C80024000020044B054A9B68C3F38223D35CA4
:1015D800034A1068D8407047003802402496000833
:1015E80024000020044B054A9B68C3F34233D35CB4
:1015F800034A1068D8407047003802402496000813
:1016080024000020036813F0050FF7B5054605D13F
:10161800286810F0020028D103B0F0BD414C424EBA
:1016280000232360FEF7C4FF074633681B0115D467
:10163800AB686A681B0743EA8213C6F88430012343
:101648002360FEF7B5FF384C064623681801DFD43F
:10165800FEF7AEFF801B0228F7D904E0FEF7A8FFCB
:10166800C01B0228E1D90320D6E7002301932E4BA3
:101678002E4C1A6C42F080521A641B6C03F0805393
:101688000193019B236843F480732360FEF790FF66
:1016980006462368D9051BD5234C236F13F44073E2
:1016A8001CD1EB6803F44072B2F5407F1E4A34D176
:1016B800916823F0704021F4F81120F44070014340
:1016C8009160116FC3F30B030B4313670020A3E76B
:1016D800FEF76EFF801B0228DBD9C4E7EA6802F434
:1016E80040729342DDD0236F114A0121116023F427
:1016F8004073002111602367236FDA07D1D5FEF705
:1017080057FF41F288370646236F9B07C9D4FEF777
:101718004FFF801BB842F7D9A5E7916821F4F8116B
:10172800CEE700BF68004742003802400070004022
:10173800400E4742026838B5D36823F0A003D3604F
:101748000446FEF735FF05462368DB689B0601D58E
:10175800002038BDFEF72CFF401BB0F57A7FF3D987
:10176800032038BD38B50368DA685206044601D547
:10177800002038BD4FF0FF32DA60FEF719FF05464A
:101788002368DB685B06F3D4FEF712FF401BB0F555
:101798007A7FF5D9032038BD38B50446B8B1437F00
:1017A80003F0FF0213B9027707F07EFB0223637789
:1017B8002368CA225A6253225A622046FFF7D2FF90
:1017C8002368054628B1FF225A620423637701255E
:1017D8002EE09A68206922F4E00222F040029A6022
:1017E800626899680243606902430A439A60E26842
:1017F8001A611A69A16842EA01421A61DA6822F09C
:101808008002DA609B689B0605D42046FFF792FFAA
:1018180008B12368D7E72368A1691A6C22F48022EB
:101828001A641A6C0A431A64FF225A620123637706
:10183800284638BD0023092803D840EA0310C0B25F
:1018480070470A380133C0B2F5E7F8B5037F012BBA
:1018580006460F464FF002052FD001230377036891
:10186800457708784D788C789B6842BB13F0400325
:1018780008BFCB70FFF7DEFF01462846FFF7DAFF07
:1018880002462046FFF7D6FFFB7840EA034040EACD
:10189800014040EA02243368CA225A6253225A623B
:1018A8003046FFF75FFF33680546A8B1FF225A624A
:1018B800042373770023337701252846F8BD13F0F6
:1018C80040034FEA052508BFCB7045EA0040204396
:1018D800CC7840EA0444DEE704F07F3424F0FE4488
:1018E8001C609A68386922F480229A60FA689968BC
:1018F80002430A439A60DA6822F08002DA609B6841
:101908009B060AD43046FFF715FF30B13368FF2233
:101918005A62042373773577CEE73368FF225A6219
:101928000123737700233377C7E7F8B5037F012BCB
:1019380005464FF0020630D00123037746774B78EF
:10194800C8788E780C78002A48D1DA0603D523F0B7
:1019580010030A334B70FFF76DFF07464878FFF70F
:1019680069FF02463046FFF765FF40EA443040EA27
:10197800074040EA02242B68CA225A6253225A625C
:101988002846FFF7EFFE2B68064640B1FF225A6251
:1019980004236B7700232B7701263046F8BD24F00B
:1019A8007F4424F0C0045C60DA6822F08002DA60C8
:1019B8009B689B060AD42846FFF7BCFE30B12B680B
:1019C800FF225A6204236B772E77E5E72B68FF2204
:1019D8005A6201236B7700232B77DEE71B0243EA69
:1019E8000040304340EA4434C5E7030903EB83036E
:1019F80000F00F0000EB4300C0B270470368986A1C
:101A0800486070B518691D6805F07F3323F0FE4300
:101A1800C0F30E001E0C8860C3F3062406F03F00D6
:101A280005F07F0506F0400608704C708D70CE708A
:101A380052B9FFF7DAFF08702046FFF7D6FF487063
:101A48002846FFF7D2FF8870002070BD38B50368BC
:101A58005C6824F07F4323F0C003180CC3F304250B
:101A680004F03F04C3F34233C8704D708C700B70A0
:101A780052B9FFF7BAFFC8702846FFF7B6FF48709B
:101A88002046FFF7B2FF8870002038BD2DE9F04FDF
:101A980087B004460D4691469846109EFEF788FD8D
:101AA80007462DB9A36B43F00063A363012010E040
:101AB80094F83400C0B2012840F0C380E26D09EB0D
:101AC800080300219342A16306D9A36B43F0007376
:101AD800A36307B0BDE8F08F032384F8343020688F
:101AE800636CC162012B4FF4007118BF4FEA49299A
:101AF80000F0F1FF50B1236840F2FF529A63A36BE4
:101B08001843A063012084F83400E2E74FF0FF3364
:101B180000934FEA48230193049090234FF0010A61
:101B28004FF0020B694620680293CDF80CB0CDF84F
:101B380014A000F0BDFFD0450AD9C4F830B049461A
:101B4800206800F0F8FF0028D5D140F22A3A27E0B3
:101B5800C4F830A04946206800F0D5FFF3E71A041E
:101B68000BD5A5F1040905F11C0B206800F0E2FE75
:101B780049F8040FD945F8D1203566B9236840F2F1
:101B8800FF529A63A36B43F00043A363012384F8D5
:101B9800343003209DE7FEF70BFDC01B8642EDD9CC
:101BA8002068436B13EA0A0F436BD8D0DB0509D5CD
:101BB800B8F1010F06D9636C032B03D001F004F8C8
:101BC800002898D123685A6B100707D540F2FF52B6
:101BD8009A63A36B43F00803A36393E75A6B9107D7
:101BE80006D540F2FF529A63A36B43F00203F3E772
:101BF8005A6B920618D540F2FF529A63A36B43F0D2
:101C08002003E9E700F096FE45F8040B3EB9236887
:101C180040F2FF529A63A36B43F00043DCE7FEF700
:101C2800C7FCC01B8642F2D92068436B13F400132B
:101C3800E8D140F2FF528263012284F8342018462A
:101C480047E7A36B43F000532FE72DE9F04786B031
:101C580004460D4691461E460E9FFEF7A9FC804697
:101C68002DB9A36B43F00063A363012010E094F83F
:101C78003400C0B2012840F09F80E26D09EB0603F2
:101C880000219342A16306D9A36B43F00073A363B9
:101C980006B0BDE8F087032384F834302068636C0D
:101CA800C162012B4FF4007118BF4FEA492900F0B7
:101CB80012FF50B1236840F2FF529A63A36B184396
:101CC800A063012084F83400E2E7012E35D92023EF
:101CD80023634946206800F05EFF0028EAD14FF0F0
:101CE800FF330093730201939023029303900490AF
:101CF800012369462068059300F0DAFE40F21A3A9B
:101D08002068436B13EA0A0F436B1DD0DD0508D525
:101D1800012E06D9636C032B03D000F055FF002871
:101D2800C8D123685A6B11072DD540F2FF529A6328
:101D3800A36B43F00803A363C3E710232363494657
:101D4800206800F010FFC8E75B0409D5A9462035D4
:101D58004946206809F1040900F0EFFD4D45F7D127
:101D680057B9236840F2FF529A63A36BA363012318
:101D780084F8343003208BE7FEF71AFCA0EB080048
:101D88008742BDD8EDE75A6B920706D540F2FF525D
:101D98009A63A36B43F00203CDE7586B40F2FF52FE
:101DA80010F010009A6303D0A36B43F01003C2E74E
:101DB800012384F834306BE7A36B43F0005353E7F7
:101DC800436E9A0F0A70C3F383624A70C3F30162C9
:101DD8008A70C3F30742CA70C3F30722DBB20A71E1
:101DE8004B71836E1A0E1201CA80CA8830B592B23E
:101DF800C3F303542243CA80C3F303420A72C3F3F2
:101E08000722D4094C72C2F380148C72C2F34014B6
:101E1800CC72C2F300140C7300244C73446C002C75
:101E280040F08380920202F440620A610A699B00D2
:101E380003F47F7313430B61C26E0B6943EA927319
:101E48000B61C2F3C2630B75C2F302634B75C2F335
:101E580042538B75C2F38243CB75D30B03F0060351
:101E68000B760C7EC2F30723C2F3C03222430A76F4
:101E78000A690C7E01320234A24042650D7A0124BF
:101E8800AC408465640A6243C2654FF4007202661E
:101E9800C3F380125B0003F07E034A768B76C36E31
:101EA8008A7EC3F3C014224303F07F038A76CB767D
:101EB800036FDA0F0A77C3F341724A77C3F382627A
:101EC8008A779A0D02F00C02CA77CA7FC3F3815051
:101ED8000243CA77C3F3405281F820200020C3F39D
:101EE800004281F8210081F82220C3F3C03281F832
:101EF8002320C3F3803281F82420C3F3403281F8D1
:101F08002520C3F3003281F82620C3F3812281F80B
:101F18002720C3F30122C3F3460381F8282081F860
:101F28002930012381F82A3030BD012C1AD11B0435
:101F380003F47C130B61C36E0A691C0E42EA042287
:101F48000A610C69C3F3074222430A610A699202D3
:101F580002F580624265C2654FF40072C3F307233D
:101F6800826594E7036840F2FF529A63836B43F0FB
:101F780080538363012380F83430184630BD000055
:101F8800F0B599B0002576230C930A950B950AAB0A
:101F9800044693E807008DE807006F4E07950895FB
:101FA800099507AB0ECB206800F0A8FC0127356027
:101FB800206800F0C7FC37600220FEF7FFFA2068AF
:101FC800069500F033FE064668B9206800F056FE14
:101FD80080B3A6644FF6FF75069B5A1CAB42069267
:101FE80008D14FF08076012084F83400A16B0E43AD
:101FF800A66381E00021206800F078FE014610B158
:102008004FF08056EFE7206800F088FE0146002870
:10201800F6D1206800F0B1FC0028DDDA0023636403
:1020280020680123ADF8163000F090FC10BB4FF08B
:1020380080656BE0A7644FF6FF75069B5A1CAB42A0
:102048000692CED00021206800F050FE06460028F7
:10205800C9D14FF08041206800F060FE0646002894
:10206800C1D10146206800F088FCC30FE5D04200CA
:10207800D4D5D4E7636C032B1AD0206800F067FE30
:102088000546002842D10146206800F076FC04216C
:102098006067206800F071FC0821A067206800F0E4
:1020A8006CFC0C21E067206800F067FCC4F8800035
:1020B800636C032B22D1636C032B2ED1042120687F
:1020C80000F05BFC000DE0640DA92046FFF778FEE8
:1020D800226D20681204002300F090FD0546A8B97F
:1020E80004F1100393E807008DE80700231D0ECBC9
:1020F800206800F003FC284619B0F0BD0DF1160168
:10210800206800F04FFE05460028D4D0012084F84E
:102118003400A36B1D43A563EEE7BDF816102165D7
:102128002068090400F028FE05460028EED1014683
:10213800206800F022FC04216066206800F01DFC85
:102148000821A066206800F018FC0C21E0662068D1
:1021580000F013FC2067B1E7A080254210B50446C3
:10216800A0B190F8343003F0FF0213B9027706F0FB
:10217800A7FE032384F834302046FFF701FF002030
:102188000123A063206384F8343010BD012010BD02
:10219800436C0B60836C4B60C36C8B60036DCB60CE
:1021A800436D0B61836D4B61C36D8B61036ECB61B6
:1021B80000207047016D10B509040446006800F05E
:1021C80045FE014628B9206800F0D7FBC0F343203C
:1021D80010BDA36B1943A1630020F7E70368DA6811
:1021E80022F49072DA605A6922F001025A612023BF
:1021F80080F83A30704700002DE9F0470668C26859
:102208003369C16923F44053134333610446836837
:102218000069F2680343606922F41642034322F01E
:102228000C020B431343F3607369A26923F44073F0
:102238001343B1F5004F73617A4B7CD19E4203D0B2
:1022480003F580639E4244D1FFF7CCF9192505FBBD
:1022580000F360684FF064094000B3FBF0F3B3FB90
:10226800F9F34FEA0318FFF7BDF9636868435B00A9
:10227800B0FBF3F7FFF7B6F9636868435B00B0FBA0
:10228800F3F3B3FBF9F309FB1373DB003233B3FB4E
:10229800F9F35B0003F4F877FFF7A4F96268684381
:1022A8005200B0FBF2FAFFF79DF9636868435B00E0
:1022B800B0FBF3F3B3FBF9F309FB13A3DB003233F1
:1022C800B3FBF9F303F0070343443B44B360BDE8B1
:1022D800F087FFF777F9192505FB00F360684FF0E1
:1022E80064094000B3FBF0F3B3FBF9F34FEA0318BA
:1022F800FFF768F9636868435B00B0FBF3F7FFF723
:1023080061F9636868435B00B0FBF3F3B3FBF9F36F
:1023180009FB1373DB003233B3FBF9F35B0003F4FF
:10232800F877FFF74FF9626868435200B0FBF2FA9A
:10233800FFF748F9B9E79E4202D03B4B9E4240D195
:10234800FFF750F9676819254FF0640905FB00F39A
:10235800BF00B3FBF7F3B3FBF9F31F01FFF742F933
:10236800636868439B00B0FBF3F8FFF73BF96368C9
:1023780068439B00B0FBF3F3B3FBF9F309FB13834A
:102388001B013233B3FBF9F303F0F008FFF72AF926
:10239800626868439200B0FBF2FAFFF723F96368BA
:1023A80068439B00B0FBF3F3B3FBF9F309FB13A3FA
:1023B8001B013233B3FBF9F303F00F0343EA0803BD
:1023C80083E7FFF7FFF8676819254FF0640905FBF5
:1023D80000F3BF00B3FBF7F3B3FBF9F31F01FFF7FB
:1023E800F1F8636868439B00B0FBF3F8FFF7EAF87D
:1023F800636868439B00B0FBF3F3B3FBF9F309FB95
:1024080013831B013233B3FBF9F303F0F008FFF732
:10241800D9F8626868439200B0FBF2FAFFF7D2F885
:10242800BDE700BF0010014000140140F8B50446A4
:102438000E4617461D4621680B6836EA030301D18C
:102448000020F8BD6B1CF7D095B92368DA6822F430
:10245800D072DA605A6922F001025A61202384F8A6
:10246800393084F83A30002384F838300320F8BD36
:10247800FEF79EF8C01B8542DDD2E6E710B504469C
:1024880040B390F8393003F0FF021BB980F83820C8
:1024980006F078FD2268242384F83930D36823F4C1
:1024A8000053D3602046FFF7A7FE23681A6922F479
:1024B80090421A615A6922F02A025A61DA6842F493
:1024C8000052DA6000202023E06384F8393084F871
:1024D8003A3010BD012010BD2DE9F0411F4690F89B
:1024E8003930202B04460D4690464FD100294AD05A
:1024F800002A48D090F83830012B47D0012380F8C3
:1025080038300023C363212380F83930FEF750F8B0
:10251800A4F824800646A4F82680E38C9BB26BB905
:102528003B46324640212046FFF780FFB0B92023C2
:1025380084F8393084F83800BDE8F081E38C013B39
:102548009BB2E384A368B3F5805F32463B464FF005
:10255800800120460ED1FFF769FF10B10320BDE8C6
:10256800F0812B882268C3F308035360236943B9B9
:102578000235D2E7FFF75AFF0028EFD123682A78FF
:102588005A600135C9E70120BDE8F0810220BDE8A5
:10259800F0812DE9F0411F4690F83A30202B04468F
:1025A8000D46904652D100294DD0002A4BD090F8C4
:1025B8003830012B4AD0012380F838300023C36318
:1025C800222380F83A30FDF7F3FFA4F82C80064662
:1025D800A4F82E80E08D80B230B9202384F83A30F8
:1025E80084F83800BDE8F081E38D013B9BB2E385B8
:1025F800A368B3F5805F32463B464FF02001204682
:1026080012D1FFF713FF10B10320BDE8F081236852
:1026180022695B6822B9C3F3080325F8023BD9E7AE
:10262800DBB225F8013BD5E7FFF700FF0028EBD127
:10263800236821695B686A1C11B92B701546C9E7C4
:1026480003F07F03F9E70120BDE8F0810220BDE82F
:10265800F08190F83A30202B20D1E9B1E2B190F81E
:102668003830012B1AD0C285828500232222C36309
:1026780080F83A2002688162D16880F8383041F4E5
:102688008071D160516941F001015161D16841F017
:102698002001D1601846704701207047022070471A
:1026A8007047704790F83A30222B10B536D18368BE
:1026B80001690268B3F5805F836A23D15268E9B97A
:1026C800C2F3080223F8022B8362C48D013CA4B232
:1026D800C4858CB90368DA6822F02002DA60DA6807
:1026E80022F48072DA605A6922F001025A612023CA
:1026F80080F83A30FFF7D5FF002010BDD2B223F89A
:10270800012BE1E721B9591C526881621A70DCE794
:102718005268591C816202F07F02F7E7022010BD5F
:1027280003681A68D96870B5160704465D6907D149
:1027380096065AD58D0658D5BDE87040FFF7B2BF4A
:1027480015F0010502D111F4907F4ED0D30705D5BD
:10275800CE0542BFE36B43F00103E363500704D5A2
:102768001DB1E36B43F00203E363930704D51DB186
:10277800E36B43F00403E363160704D51DB1E36B71
:1027880043F00803E363E36B002B66D0950604D59A
:10279800880602D52046FFF785FF23685D69E26B4E
:1027A8001107204602D415F040051AD0FFF716FD90
:1027B80023685A69520610D55A69606B22F04002A4
:1027C8005A6150B1254B0365FDF79DFF002844D0A1
:1027D800606BBDE87040036D1847204602F0E8F8CA
:1027E80070BD02F0E5F8E56370BD160627D50D0645
:1027F80025D594F83920212A2FD1A268B2F5805F17
:10280800226A17D11188C1F308015960216979B981
:1028180002322262E28C013A92B2E284EAB9DA68C0
:1028280022F08002DA60DA6842F04002DA6070BDB5
:102838000132EEE7511C216212785A60EAE750062D
:102848000BD54A0609D5DA6822F04002DA6020235F
:1028580084F839302046FFF723FF70BD6928000847
:1028680008B5806B0023C385C38402F0A1F808BDB6
:10287800114B4FF4FA521B68B3FBF2F241F2883362
:10288800534313F1FF3314D3426B12F0450FF8D0C2
:10289800436B5B0703D50423836318467047436B78
:1028A80013F0010301D00123F6E740F2FF528263DF
:1028B800F3E74FF00043F0E7240000200E4B4FF4FD
:1028C800FA521B68B3FBF2F241F28833534313F117
:1028D800FF330ED3426B12F0450FF8D0436B13F061
:1028E800040315BF042340F2FF5283638263184632
:1028F80070474FF0004070472400002084B010B5A6
:1029080003AC84E80E000499039B42680B430599C5
:102918000B4306990B4307990B430899BDE81040F0
:1029280022F4FD420B4322F07F021343436004B0BC
:1029380000207047D0F8800070470B68C0F88030DE
:10294800002070470323036000207047006800F0F0
:10295800030070470B6810B583608C684B68C268C9
:102968002343CC680969234322F47F620B4322F096
:102978000F021343C360002010BD82B0143001441D
:10298800002301930191019B186802B07047000071
:10299800454B10B51B684FF4FA54B3FBF4F35A4394
:1029A800002A4AD0436B13F0450F02F1FF32F7D0EB
:1029B800436B5C0703D504238363184610BD436B40
:1029C80013F0010301D00123F6E70269D2B2914264
:1029D80036D140F2FF5219468263FFF7CEFF334BE0
:1029E8000340002BE9D000282CDB42002DD48400C2
:1029F8002DD4C1002DD402012ED444012FD4C101FD
:102A080030D4020231D4440232D4810233D4C20217
:102A180034D4440335D4810336D4C20337D40404F0
:102A280038D4410439D482043AD410F0080F14BFC2
:102A38004FF400034FF48033BFE74FF00043BCE787
:102A48000123BAE74FF00073B7E74023B5E78023C7
:102A5800B3E74FF48073B0E74FF40073ADE74FF47A
:102A68008063AAE74FF40063A7E74FF48053A4E715
:102A78004FF40053A1E74FF480439EE74FF400431F
:102A88009BE74FF4003398E74FF4802395E74FF422
:102A9800002392E74FF480138FE74FF400138CE77D
:102AA8004FF4800389E700BF2400002008E0FFFD01
:102AB8000B6810B543624B688362CC688B68C26A46
:102AC80023430C69496923430B4322F0F70213435C
:102AD800C362002010BD30B587B0402303930023A4
:102AE800054601911024049301A94FF480630593CE
:102AF8000294FFF72FFF41F2883221462846FFF75C
:102B080047FF07B030BD30B587B04023039300239B
:102B1800054601911124049301A94FF4806305939C
:102B28000294FFF717FF41F2883221462846FFF743
:102B38002FFF07B030BD30B587B040230393002383
:102B4800054601911224049301A94FF4806305936B
:102B58000294FFF7FFFE41F2883221462846FFF72C
:102B680017FF07B030BD30B587B04023039300236B
:102B7800054601911824049301A94FF48063059335
:102B88000294FFF7E7FE41F2883221462846FFF714
:102B9800FFFE07B030BD30B587B040230393002354
:102BA800054601911924049301A94FF48063059304
:102BB8000294FFF7CFFE41F2883221462846FFF7FC
:102BC800E7FE07B030BD000030B587B000230546EA
:102BD80001930C244022049301A94FF480630392CB
:102BE80005930294FFF7B6FE034A21462846FFF7ED
:102BF800CFFE07B030BD00BF00E1F50530B587B0A6
:102C080040230393002305460724049301A94FF4A6
:102C18008063019205930294FFF79CFE41F288328B
:102C280021462846FFF7B4FE07B030BD10B586B080
:102C38000023019302930393049301A94FF4806343
:102C480005930446FFF786FE0B4B4FF4FA521B68B8
:102C5800B3FBF2F241F28833534313F1FF3308D345
:102C6800626B1206F9D540F2FF53A363002006B049
:102C780010BD4FF00040FAE72400002010B586B0E0
:102C88004FF4D57301930823029340230393002341
:102C9800049301A94FF4806305930446FFF75AFE95
:102CA800114B4FF4FA521B68B3FBF2F241F288332E
:102CB800534313F1FF3314D3626B12F0450FF8D06E
:102CC800626B12F0040204D04023A363042006B010
:102CD80010BD606B10F04000F9D04023A36310468C
:102CE800F5E74FF00040F2E72400002030B587B048
:102CF800402303930023054601913724049301A937
:102D08004FF4806305930294FFF724FE41F2883262
:102D180021462846FFF73CFE07B030BD10B586B007
:102D28002923029341F000414023039341F4801189
:102D3800002304460191049301A94FF4806305938D
:102D4800FFF708FE2046FFF7B9FD06B010BD10B525
:102D580086B0002302220446019302920493C02203
:102D68004FF4806301A903920593FFF7F3FD204612
:102D7800FFF77EFD06B010BD10B586B0092302939B
:102D8800C0230393002304460191049301A94FF43F
:102D980080630593FFF7DEFD2046FFF769FD06B067
:102DA80010BD000030B587B00023032201930292C2
:102DB800049340224FF480630D4601A903920593C2
:102DC8000446FFF7C7FD204B4FF4FA521B68B3FBCC
:102DD800F2F241F28833534313F1FF332BD3626B82
:102DE80012F0450FF8D0636B5A0703D50420A0638F
:102DF80007B030BD616B11F0010101D00120F6E789
:102E08002369DBB2032B19D140F2FF53A363204699
:102E1800FFF7B3FD10F4604303D1000C2880184677
:102E2800E6E743040CD410F4004F14BF4FF480506D
:102E38004FF48030DCE74FF00040D9E70120D7E7B6
:102E48004FF40050D4E700BF2400002030B587B00D
:102E5800402303930023054601910D24049301A9FF
:102E68004FF4806305930294FFF774FD41F28832B2
:102E780021462846FFF78CFD07B030BD034B1A18D2
:102E880003EB8003107A5B685B6818476C000020CE
:102E9800064B1A5C42B901221A541A1803EB800334
:102EA800107A5B681B681847002070476C00002088
:102EB80030B4054C251804EB800460688468287ACF
:102EC800A44630BC604700BF6C00002030B4054CFD
:102ED800251804EB80046068C468287AA44630BCCE
:102EE800604700BF6C000020054B10B41C1803EBB2
:102EF8008003207A5B685DF8044B1B69184700BFA4
:102F08006C00002042884378007843EA022340EAB4
:102F1800032070470B0A017043700B0C090E837075
:102F2800C1707047024400F8011B9042FBD1704702
:102F3800154BF0B500252A461C461E68A6B1076841
:102F4800BE4212D15F688668B7420ED19F68466953
:102F5800B7420AD1B1B904EB02129389B3F5807F65
:102F680014BF00201020F0BD01250132022A03F110
:102F78001003E2D10DB10020F0BD02290CBF0020E2
:102F88001220F0BD1020F0BD480000201C4AF0B50A
:102F98000568002316461468AC4207D15768846850
:102FA800A74203D197684469A7421DD00133022B79
:102FB80002F11002EFD1336813B13369EBB9012381
:102FC8001C013219355184684069906000205460B2
:102FD800908179B906EB03129289013292B206EB1D
:102FE8000316581CB281F0BD0029F3D006EB03127A
:102FF800928912B94FF48072F1E70020F0BD00BF4A
:1030080048000020013801280ED8094A0301D118C8
:10301800898921F4807080B208B1481E80B2D11825
:10302800888118B9D0507047022070470020704737
:103038004800002043690239023B99423DBF438959
:10304800806A01FB030000207047C36A02680433EA
:10305800490A5289B1FBF2F1186830B1814202D3B2
:10306800091A0833F8E7586808447047026810B529
:1030780052B111460B4611F8014B202C0CD93A2CB1
:10308800F8D1511C8B4202D04FF0FF3010BD12789E
:10309800302AF9D101330360002010BD38B50D4640
:1030A800044618B9092000232B6038BD0368002B9B
:1030B800F8D01A78002AF5D08188DA889142F1D1BF
:1030C8005878FFF7DBFE10F00100EBD12368EBE73F
:1030D80001380A4411F8013B00F8013F9142F9D147
:1030E8007047CA7E8B7E032843EA022301BF487DCE
:1030F8000A7D42EA002243EA024318467047C2F3B7
:1031080007238A76CB760378032B01BF120C0A7546
:10311800120A4A757047F8B5C56A00F130070446C7
:1031280001232A4639464078FFF7D0FEA0B9236A22
:10313800A269E070EB1A934201D30020F8BDA6788B
:10314800012EFAD9A36960781D442A46012339461D
:10315800FFF7BCFE013EF3E70120F8BDC3780BB1D1
:10316800FFF7D9BF18467047F8B50446FFF7F6FFD2
:103178000546002842D12378032B37D12779012F20
:1031880034D104F1300601464FF400723046FFF79F
:10319800C9FE552384F82E32AA2384F82F325223ED
:1031A8004122722184F8303084F83130612384F868
:1031B800323084F8332084F8162284F8173284F8E1
:1031C800141284F8151204F506702169FFF7A2FE9F
:1031D800E16804F50770FFF79DFEE2696078013247
:1031E800E2623B463146FFF771FE25710022114627
:1031F8006078FFF779FE003018BF0120F8BDC36A78
:103208008B4270B506460D4612D0FFF7A7FF04465D
:1032180060B92A46012306F130017078FFF748FEAD
:1032280000281CBF4FF0FF350124F562204670BD11
:103238000024FBE7002310B5C3704FF0FF33C362CF
:103248000446FFF7DCFF30BB94F82F2294F82E32A7
:1032580043EA02234AF6552293421ED194F83030AD
:10326800E92B05D0236B104A03F0FF13934216D1C4
:1032780004F16600FFF746FE0C4B20F07F409842B1
:103288000FD004F18200FFF73DFE094B984214BFAE
:103298000220002010BD042010BD032010BD022014
:1032A80010BD002010BD00BFEB0090004641540047
:1032B800464154332DE9F043002385B00B600F4697
:1032C8001546FFF7D3FE061EC0F24081A34B53F804
:1032D8002640002C00F03C813C60237805F0FE0578
:1032E80073B16078FFF7CAFDC10709D4002D00F05B
:1032F800318110F0040000D00A2005B0BDE8F08349
:103308000023F0B223706070FFF7C2FDC20700F11E
:1033180023810DB14307EFD400212046FFF78AFF30
:10332800022840F0F78004F5FB75002115F8040C1D
:1033380010B12846FFF7E6FD4DF8210001310429B8
:1033480005F11005F2D100255DF82560002E00F08A
:10335800D88031462046FFF76DFF012800F2D28061
:1033680094F83C2094F83B3043EA0223B3F5007FFD
:1033780040F0D48094F8473094F8465055EA032535
:1033880004D104F15400FFF7BDFD054694F84090C0
:10339800A56109F1FF33012B84F8029000F2BE8089
:1033A80094F83D70BBB26381002B00F0B7807B1EA0
:1033B8003B4240F0B38094F8423094F8418048EAA8
:1033C800032818F00F0FA4F8088040F0A78094F89D
:1033D800441094F8430050EA012003D104F150004E
:1033E800FFF790FD94F83F3094F83E2052EA03220C
:1033F80000F0948005FB09F302EB181E9E4470450B
:10340800C0F08C80A0EB0E01B1FBF7F1002900F0B1
:1034180085804FF6F570814200F2848040F6F5779A
:10342800B9428CBF022701270231324406EB0E0055
:10343800032F6161E6612262A06275D194F85B2076
:1034480094F85A3053EA022368D1B8F1000F65D1D5
:1034580004F15C00FFF756FD6062890001F2FF117C
:10346800B5EB512F5AD34FF0FF332361E360032F9D
:103478004FF0800323712FD194F8612094F86030C5
:1034880043EA0223012B27D1711C2046FFF7B7FE20
:1034980010BB94F82F2294F82E32207143EA0223AD
:1034A8004AF65522934217D104F13000FFF72AFD5E
:1034B8002B4B984210D104F50570FFF723FD294BDB
:1034C800984209D104F50670FFF71CFD206104F548
:1034D8000770FFF717FDE060234A27701388013350
:1034E8009BB21380E380214B1A68944204BF0022E8
:1034F8001A601A6994424FF000007FF4FEAE18611A
:10350800FBE603200135042D7FF41EAF042805D106
:103518000120F2E60428FBD0012801D90D20ECE6B1
:1035280000261DE703277FE7B8F1000FF6D0022F2A
:103538004FEA410018BF4018134418BF01F00101B9
:1035480063620CBF014601EB500187E70B20D4E60C
:103558000C20D2E62846D0E60320CEE64400002020
:103568005252614172724161680000204800002097
:1035780001292DE9F04705460C46174672D94369DB
:1035880099426FD20378022B3FD0032B50D0012BE6
:1035980068D101EB5108016A01EB5821FFF72FFEB2
:1035A800064638BB05F1300908F1010AC8F30808D6
:1035B80014F001041FBF19F8083003F00F023B0193
:1035C80003F0F00314BF1343FBB209F80830296A6B
:1035D8000123EB7001EB5A212846FFF710FE06463F
:1035E80040B9CAF3080A44B1C7F3071709F80A70C3
:1035F8000123EB703046BDE8F08719F80A30C7F3AD
:10360800032723F00F031F43F0E7016A01EB14219E
:10361800FFF7F5FD06460028ECD1640005F13003FC
:1036280004F4FF741A191F55C7F307275770DFE70B
:10363800016A01EBD411FFF7E2FD06460028D9D153
:10364800A40005F1300304F4FE741C442046FFF77F
:1036580059FC27F0704700F0704139432046FFF7C6
:1036680059FCC5E70226C5E70129F8B505460C4609
:1036780052D9436999424FD20378022B29D0032BA0
:1036880038D0012B48D101EB5106016A01EB5621D4
:10369800FFF7B5FD10B14FF0FF30F8BD771C296A70
:1036A800C6F308062E4401EB5721284696F83060E9
:1036B800FFF7A5FD0028EED1C7F308073D44E3074F
:1036C80095F8300046EA00204CBF0009C0F30B0013
:1036D800F8BD016A01EB1421FFF791FD0028DAD14A
:1036E8006400303504F4FF742B19285D5B7840EAD8
:1036F8000320F8BD016A01EBD411FFF780FD002813
:10370800C9D1A40005F1300004F4FE742044FFF789
:10371800F9FB20F07040F8BD0120F8BD2DE9F0411B
:10372800804605680F4671B9EE68F6B16B699E422E
:1037380028BF012634466B6901349C4218D3012EF8
:1037480015D8002409E02846FFF78EFF0128044613
:1037580037D9431C04D14FF0FF342046BDE8F0812F
:103768006B699842F9D33E46E4E70126E2E7022472
:103778002146D8F80000FFF777FF30B1012820D0A4
:103788000130E8D0B442D6D1DBE74FF0FF32214612
:103798002846FFF7EDFE90B957B96A692B69EC60C6
:1037A800023A93420FD92B7943F001032B71D4E7E6
:1037B800224639462846FFF7DBFE0028EDD00128CF
:1037C800C9D00124C9E7013B2B61ECE7F8B50D46E8
:1037D800012D0746114601D80220F8BD0468636927
:1037E8009D42F9D22AB14FF0FF322046FFF7C0FEC2
:1037F80008BB29463868FFF737FF064608B9002096
:10380800F8BD0128E8D0431C14D0002229462046E0
:10381800FFF7AEFE78B962692369911E8B4205D223
:1038280001332361237943F001032371964235461E
:10383800DFD3E4E70120F8BD826838B500230546E8
:103848000468436192B92378022B01D9636A73B97A
:1038580023890BB9022038BD636AEB61EB69AA6161
:10386800002BF7D030342C62002038BD1346618914
:103878001A4661B911462868FFF7F6FE431C02464E
:103888000BD00128E6D963699842F3D3E2E71946D9
:103898002046FFF7CFFBE861E0E7012038BDC369A8
:1038A8002DE9F04705460F46ABB1426902F1200801
:1038B800B8F5001F0FD2C8F308090468B9F1000F62
:1038C8004FD181690133C36141B92389B3EB581FD3
:1038D80047D80023EB610420BDE8F0876389013BEA
:1038E80013EA58233DD12046FFF7BEFE01280646BD
:1038F80002D80220BDE8F087421C02D10120BDE8B1
:10390800F0876369984226D3002FE2D0A969284638
:10391800FFF704FF0646002837D00128E9D0431CEA
:10392800ECD02046FFF71AFC07460028E6D10146EE
:103938004FF4007204F13000FFF7F4FA31462046E4
:10394800FFF778FB4FF0010AE06263899F4210D3CA
:10395800E36ADF1BE762AE6131462046FFF76AFB88
:10396800E86130344C44C5F814802C620020BDE86E
:10397800F08784F803A02046FFF7CDFB0028BDD1CF
:10398800E36A01330137E362DFE70720BDE8F08728
:103998002DE9F843076804460B782F2B0D4601F1F3
:1039A8000101F9D05C2BF7D00023A3602B781F2BE3
:1039B80059D9DFF85C8104F124060B222021304616
:1039C800FFF7B0FA002205F1FF3E114608201EF865
:1039D800013F202B01F101010BD92F2B4BD1681886
:1039E800411B10F801EBBEF12F0FF9D0BEF15C0FAF
:1039F800F6D00D44002A54D094F82420D4F800902E
:103A0800E52A04BF052284F82420212B34BF04238F
:103A1800002384F82F302046FFF70EFF002845D1F9
:103A2800E1694846FFF7EBFB00283FD1236A1A7883
:103A3800002A46D0DA7A02F03F02A271DA7A110738
:103A48000CD403F10B0E314613F8012B11F801CBFE
:103A58009E45A2EB0C0227D0002AF5D00021204673
:103A6800FFF71DFFDAE7802384F82F302046BDE8F2
:103A7800F843FFF7E1BE5C2BB1D02E2B36D0904235
:103A88000FD913F0800F18BF803BDFF8889018BF5C
:103A980018F8033019F801CFBCF1000F2BD063459B
:103AA800F8D10620BDE8F883002AD7D194F82F3042
:103AB80048B1042829D113F0040F08BF0520BDE838
:103AC800F8830420F2E75A071FD4A379DB060AD546
:103AD80063693878C3F3080307F130011944FFF725
:103AE80000FBA06067E70520BDE8F8830B28D8D065
:103AF80008220B206BE7A3F1610CBCF1190F01D868
:103B0800203BDBB2B354013261E7BDE8F88300BF64
:103B1800F89400087795000838B50446056804202D
:103B2800E16909B9A8B11CE02846FFF768FBC0B9EC
:103B3800236A1A78C2B1DB7AE52A03F03F03A3713E
:103B480009D02E2A07D00F2B05D023F02003082BED
:103B580001D0002038BD00212046FFF7A0FE002834
:103B6800DED00023E36138BD0420FAE770B50546CE
:103B78000668FFF761FE044628BBE9693046FFF78F
:103B88003EFB0446F8B92B6A1B78E52B14D1E9698A
:103B98003046FFF734FB044660B901462022286A04
:103BA800FFF7C0F90B2205F12401286AFFF790FA04
:103BB8000123F370204670BD002BE8D00121284670
:103BC800FFF76DFED7E7042C08BF0724F2E70000D3
:103BD8007FB5019004A8009140F8041D1646FFF730
:103BE80045FA051E1FDB124951F825405CB1114BFF
:103BF8001A68944204BF00221A601A69002094428D
:103C080008BF18612070019808B10023037041F8BB
:103C1800250030B1012E08D1002201A96846FFF71E
:103C280049FB04B070BD0B20FBE70020F9E700BF9B
:103C380044000020480000202DE9F04790B090464D
:103C480001910446002800F0CE8002F03F052A4684
:103C580003A901A8FFF72EFB074638BB10AE039B4C
:103C680046F8303D01993046FFF792FE58B99DF964
:103C78003F30002B1EDB15F03E0F14BF0121002141
:103C88003046FFF755F918F01C0F73D0A0B104287F
:103C980009D1714B1A68002A00F0DA801B69002BE1
:103CA80000F0D680122045F0080570B1002323608B
:103CB800074692E00620E6E79DF8163013F0110F4C
:103CC80063D118F0040F40F0BD8028073CD500F000
:103CD8006DFE024601460C980E30FFF71BF90C9852
:103CE80011461630FFF716F90C9BDDF80C902022D0
:103CF800DA72DDF830A099F800005146FFF7F1F9C3
:103D08000022514680464846FFF7F9F90C9B0022ED
:103D18001A775A779A77DA77039B0121D970B8F125
:103D2800000F11D041463046D3F82C90FFF74EFDD6
:103D38000028BBD149460398FFF761FA039A08F1B6
:103D4800FF33D3600028B1D1039B2807DB6A636285
:103D580048BF45F0400515F0FE0F0C9BA36214BF49
:103D6800012100213046FFF711F9206100283CD1DC
:103D780002209BE7002899D19DF81630DA0663D413
:103D880018F0020FE0D0DB07DED507208EE72068A9
:103D9800FFF76AFC0128014623D9421C50425041D2
:103DA800A5EB0805002849D0E16100287FF47EAF23
:103DB800C5F308038BB1DDF80C804046FFF73AF9EC
:103DC8000028D5D000EB552222620123314698F80D
:103DD8000100FFF76DF8002838D1384610B0BDE86B
:103DE800F0870220DCE70927F7E7039EDDF830803B
:103DF80030784146FFF775F9A06008F11C00FFF71D
:103E080081F8F3882660002104F13006E060A38081
:103E1800E162257561752162A1614FF40072304637
:103E2800FFF780F8AB06D8D5E568002DD5D0039B01
:103E3800A168B3F80A80A5614FEA4828A845A6D327
:103E48000020B1E7082031E704202FE701202DE703
:103E58003046FFF78BFE26E7480000202DE9F04F9B
:103E68009B4685B000238946CBF8003003A9044659
:103E78001546FFF713F9064600BB667DF6B9237DA4
:103E8800DA0740F19680E368A769DF1BAF4228BFD5
:103E98002F4604F1300A8FB1A169C1F30803002B42
:103EA80079D1039B5B89013B13EA5123019319D113
:103EB80041B9A068012810D802266675304605B0B9
:103EC800BDE8F08FE36A1BB12046FFF7BEF8F1E7C3
:103ED800E1692068FFF7C8FBECE7431C01D1012624
:103EE800EBE7E061039BE16900931846FFF7A2F84E
:103EF8000028E1D0019B7D0A03EB00082DD0009B30
:103F0800019A5B8900982A449A4288BF019A4078AE
:103F180088BF9D1A2B4642464946FEF7C9FF00282E
:103F2800DDD194F91430002B0BDA206AA0EB0800DD
:103F3800854206D94FF40072514609EB4020FFF73D
:103F4800C7F86D02A3692B44A361DBF800302B444A
:103F5800A944CBF800307F1B9DE7226A904518D012
:103F680094F91430002B0BDA00980123514640785D
:103F7800FEF7ACFF0028B2D1237D03F07F03237541
:103F880003980123424651464078FEF791FF0028E6
:103F9800A5D1C4F82080A169C1F30801C1F5007555
:103FA800BD4228BF3D462A4651444846FFF790F88F
:103FB800C8E7072682E72DE9F04F9B4685B0002326
:103FC8008946CBF8003003A904461746FFF766F880
:103FD800064658BB667D4EBB237D9A0740F1AE80EE
:103FE800A369FB4228BFDF4304F1300AD7B1A169B6
:103FF800C1F30803002B40F08F80039B5B89013BD2
:1040080013EA5123019324D131B9A068A0B901461C
:104018002046FFF783FB04E0E36A5BB12046FFF725
:1040280014F848B9237D43F040032375304605B0A2
:10403800BDE8F08FE169EBE7012802D10226667539
:10404800F4E7431C01D10126F9E7A368E06103B94D
:10405800A06094F91430002B0CDA0398226A407897
:1040680001235146FEF732FF0028ECD1237D03F0EF
:104078007F032375039BE16900931846FEF7DAFF77
:104088000028DBD0019B7D0A03EB000832D0009B9F
:10409800019A5B8900982A449A4288BF019A40781D
:1040A80088BF9D1A2B4642464946FEF70FFF002857
:1040B800C9D1216AA1EB08018D420AD94FF40072D7
:1040C80009EB41215046FFF703F8237D03F07F03F6
:1040D80023756D02A369E2682B44A3619A422CBF41
:1040E800E260E360DBF800302B44A944CBF80030F1
:1040F8007F1B7BE7236A98450CD0A269E3689A4244
:1041080008D200980123424651464078FEF7D0FE77
:10411800002898D1C4F82080A069C0F30800C0F531
:104128000075BD4228BF3D462A4649465044FEF721
:10413800CFFF237D63F07F032375CBE7072675E761
:10414800F7B501A90446FEF7A9FF054600283AD1AC
:10415800237D5A0637D51B060CD50198226A40786C
:10416800012304F13001FEF7B1FE78BB237D03F093
:104178007F03237500F01AFC616A07460198FFF770
:104188003EF80546F8B9A66AF37A43F02003F372BD
:10419800A26820683146FEF7B2FFE16806F11C000C
:1041A800FEF7B8FE394606F11600FEF7B3FE019891
:1041B800B5740123F574C370FEF7D6FF237D23F091
:1041C800400305462375284603B0F0BD0125FAE7EC
:1041D80013B50446FFF7B4FF48B901A92046FEF716
:1041E8005DFF20B92069FEF70DFF00B9206002B01D
:1041F80010BD2DE9F74F0D4601A90446FEF74EFF05
:104208000646E0B9667DD6B9E36A002B78D06A1C09
:1042180039D1D4F80880D3F800B01F1D0225B8F1B1
:10422800000F28D0C1464FF0000A49462068FFF722
:104238001BFA01280AF1010A07D8022666753046DA
:1042480003B0BDE8F08F8046ECE7431C01D101269E
:10425800F4E709F1010398428146E6D00235AB45FF
:1042680021BF3B4643F808ABC7F804801F46019BB3
:104278005B699842E7D3E36A5D451D6000F2D4802C
:1042880000233B60DBE7E068854228BF0546A5615F
:10429800002DD4D005F1FF3841462046FEF7D5FE63
:1042A800019FE06101463846FEF7C4FE0028C4D0ED
:1042B800C5F30805002DC2D07D89226A013D05EAB3
:1042C800582505449542BAD094F91430002B04F1CE
:1042D80030080ADA012341467878FEF7F7FD00280E
:1042E800B5D1237D03F07F032375019801232A4666
:1042F80041464078FEF7DCFD0028A8D125629EE7FC
:10430800E3689D4204D9227D12F0020F08BF1D46C2
:104318000022A369A261002D32D12F4609E00027AF
:10432800E368A5699D4281BF237DE56043F04003B2
:104338002375C5F30805002D81D0226ABA423FF4DF
:104348007EAF94F91430002B04F130050CDA019893
:10435800012329464078FEF7B9FD00287FF477AF9E
:10436800237D03F07F032375019801233A462946EC
:104378004078FEF79DFD00287FF469AF27625EE76D
:10438800019A57897F0203B3013B6A1EB3FBF7F119
:10439800B2FBF7F28A4218D37A421340E169A3616B
:1043A800ED1A0029BBD0BD421ED8A3692B44A361D6
:1043B800C5F30803002BB2D00198FEF73BFE002896
:1043C8003FF43BAF00EB5527AAE7A16851B9204657
:1043D800FFF7A4F9012801463FF42FAF01303FF45D
:1043E80036AFA160E161DCE7A3693B44A361237DAB
:1043F8009A07A5EB070506D52046FFF78FF9014672
:1044080028B90546D1E72068FFF72EF901464B1C6D
:104418003FF41DAF01297FF610AF019B5B699942FC
:10442800BFF40BAFE161BEE7112608E770B59CB099
:104438000222019003A901A8FEF73CFF039B049305
:1044480090B9019904A8FFF7A3FA68B9022104A852
:10445800FEF76EFD40B99DF93F30002B0EDB9DF84D
:104468001660F2070CD507201CB070BD0246214625
:1044780004A8FFF7ABF90028F6D125E00620F3E7FA
:10448800039D0C992878FEF72CFEF30604460DD5FB
:1044980010A810951294FFF7CFF90028E4D110A8BE
:1044A800FFF73AFB0028DED00428DDD1049D0B99E4
:1044B8002846FEF7A4FE0028D6D10C9BE5221A70E8
:1044C8000123EB70002CD1D10398FEF74DFECBE70A
:1044D8002DE9F3410446904605464F1E2E1BB74270
:1044E80008DC00239E4208BF1C4620462B7002B001
:1044F800BDE8F08101AB012269464046FFF7AEFCFA
:10450800019B012BEDD19DF8003005F8013BE5E753
:1045180030B50F4B5D7A05F0FF04B5B95D7A5C558F
:104528005D7A03EB85056860587A184402725A7AF6
:10453800D2B2501CC0B258723A2330324B702F237B
:104548000A708B70CC70204630BD012030BD00BF92
:104558006C0000200022FFF7DBBF00001449B523E0
:1045680010B50B7062234B70F02406238B708C718E
:104578000023104C4B71082201200B728B72CB72F6
:104588000B734B736023C8700A71CA7148728A73BF
:10459800CB73102241F288332046FDF79DFF204659
:1045A80041F6FF7346220449BDE81040FDF7F1BF0C
:1045B8004102002010130020600100202DE9F14F76
:1045C800804C814E4FF00603A3704FF0080323710F
:1045D8002A23002501274FF0B50A4FF062094FF052
:1045E800F008E373214641F288331022304684F8FC
:1045F80000A084F80190E770657184F80680E7717F
:1046080025726572A572E57225736573A573FDF74A
:1046180063FF41F6FF7346226C493046FDF7B9FF48
:104628004FF00603A3704FF0080323714FF0030304
:10463800E37138234FF0020BE373214641F28833CC
:104648001022304684F80EB084F800A084F8019057
:10465800E770657184F8068025726572A572E57247
:1046680025736573FDF738FF41F6FF7346225749F6
:104678003046FDF78EFF4FF00603A3704FF0080396
:1046880023713123E373214641F2883310223046E7
:1046980084F807B084F800A084F80190E770657189
:1046A80084F8068025726572A572E57225736573B4
:1046B800A773FDF711FF41F6FF73462243493046C1
:1046C800FDF767FF4FF00603A3704FF0080323714F
:1046D8000523E3714FF004034FF0460BA373214603
:1046E80041F288331022304684F800A084F8019003
:1046F800E770657184F8068025726572A572E572A7
:104708002573657384F80FB0FDF7E6FE5A4641F647
:10471800FF732E493046FDF73CFF4FF00603A370A8
:104728004FF0080323714FF00403E3714FF00303C4
:10473800A3733F23E373214641F2883310223046A6
:1047480084F800A084F80190E770657184F8068009
:1047580025726572A572E57225736573FDF7BCFE57
:104768005A4641F6FF7319493046FDF712FF4FF0DC
:104778000603A3704FF008032371FF23A3732323B9
:10478800E373214641F288331022304684F800A0B2
:1047980084F80190E770657184F80680E5712572E8
:1047A8006572A572E57225736573FDF795FE074975
:1047B80041F6FF735A46304601B0BDE8F04FFDF7A9
:1047C800E8BE00BF41020020101300206001002055
:1047D80070B50D4C0D461646014601222046FFF7DE
:1047E8002BFA0A4B314618702046FFF702FD224685
:1047F80029460748FFF76CFE064B18602046BDE8BF
:104808007040FFF7E5BC00BF900600208C06002032
:10481800F8020020880600202DE9F0410D4C0E4DCD
:104828000F4616460146322220469846FFF704FAFC
:10483800414628702046FFF7DCFC3A4631462046C0
:104848000023FFF7B8FB28702046BDE8F041FFF7CA
:10485800BFBC00BF900600208C06002007B50120D1
:104868008DF807009DF80730834202D10248FDF712
:1048780075FC03B05DF804FBA411002007B5009394
:1048880013460A4601460448FDF700F9003018BFF0
:10489800012003B05DF804FBA411002007B50093C4
:1048A80013460A4601460448FDF7CFF9003018BF01
:1048B800012003B05DF804FBA411002008B50348EB
:1048C800FDF778FC043818BF012008BDA4110020AA
:1048D80001460148FDF75CBCA41100207FB506AB7A
:1048E8004FF4FA7203F8011D02920122019200931B
:1048F80082B21023A0210448FCF77EFA0820FBF7B7
:104908005DFE07B05DF804FB540E00201FB54FF4A0
:10491800FA730293064C00940123019382B2102388
:10492800A0210448FCF7F8FA207804B010BD00BFB5
:10493800C0080020540E0020F8B5094C05460E4664
:104948001746002323602068B04200D3F8BD15F84D
:10495800011B3844FFF7C2FF23680133F2E700BFA9
:1049680078000020F8B5094C05460E461746002386
:1049780023602068B04200D3F8BD3844FFF7C6FF73
:10498800236805F8010B0133F2E700BF7800002027
:1049980008B503490348FFF7DDFD034B187008BD50
:1049A800C508002000960008C408002000207047B1
:1049B80082B00023019303681A6801925B6801932F
:1049C800019B02B07047000010B5054A0549002355
:1049D800834200DD10BD5C5C9C540133F8E700BFE6
:1049E8005C370020045500200023034A19469954D7
:1049F8000133A02BFBD17047FE5500200023034A4A
:104A08001946D1540133282BFBD17047AD0F002034
:104A18000023034A194699540133642BFBD170478C
:104A2800113C0020F8B5434C0623236000F0CEFA71
:104A38002268012AFCD14FF400513F48FBF75CFF84
:104A48000C23236000F0C2FA2368012BFCD13B4AF7
:104A58003B4812783B4C032A04BFC3704372FFF7EC
:104A6800D7FF05794179384806783848A672012376
:104A780003220227EDB2C9B20370A1714770827098
:104A8800C37003714571817100212370E370237134
:104A9800E3716372E37223736373A373E373237421
:104AA8006374A374E374C371A27022720272677094
:104AB800657143728672C372037343738373C373DE
:104AC800037443748374C37400F048FB13222049B1
:104AD8002048FBF703FE204B1860186800F04EFBD7
:104AE8001E4B1F48DA7822759A7862755A781B78B7
:104AF800E3757D23237663760D23A3760A23A275B7
:104B0800E376214641F288331A22FDF7E5FC41F2AB
:104B1800883321461A221348FDF7DEFC00224FF4A1
:104B280000510548FBF7E8FEFFF772FFBDE8F840C3
:104B3800FFF764BF8415002000080240F100002040
:104B4800C1100020113C00200C000020AD0F0020F7
:104B5800201500202C0D00207C000020C83E0020DD
:104B680088150020101300200023034A1946995481
:104B78000133642BFBD170475C37002010B530221D
:104B880098B000210DEB020004F08CFC10241422D4
:104B9800002107A804F086FC2246002103A804F09F
:104BA80081FC0023234A0193116C41F08051116468
:104BB800126C02F080520192019A1F4A0293116806
:104BC80041F4804111601268139302F48042082373
:104BD800029214933223029A1593062204230C920C
:104BE800109401221693022407230CA80E920F9208
:104BF80012941793FCF79CFA014600B1FEE70F23C5
:104C080007934FF4C05309900A9307A84FF48053B1
:104C180008940B93FCF73CFC00B1FEE74FF480735B
:104C280003A803940693FCF7EDFC00B1FEE718B067
:104C380010BD00BF003802400070004080B58CB045
:104C4800FBF76AFCFFF79AFF1422002107A804F07B
:104C580029FC00248E4B01941A6B8E4842F01002F6
:104C68001A631A6B02F010020192019A02941A6BED
:104C780042F004021A631A6B02F004020292029ACA
:104C880003941A6B42F080021A631A6B02F08002D6
:104C98000392039A04941A6B42F001021A631A6B86
:104CA80002F001020492049A05941A6B42F002027F
:104CB8001A631A6B02F002020592059A06941A6B9F
:104CC80042F008021A631B6B03F00803069322469E
:104CD8001E21069BFBF710FE224642F20C016E488D
:104CE800FBF70AFE224601216C48FBF705FE224627
:104CF80048F208016A48FBF7FFFD01251E2307A9B2
:104D080064480793089509940A94FBF70FFD42F24B
:104D18000C0307A960480793089509940A94FBF7C0
:104D280005FD4FF4B87307A95D48079308940994E3
:104D38000226FBF7FBFC47F6A07307A95548079323
:104D480008940996FBF7F2FC44F20A0307A95348B2
:104D58000793089509940A94FBF7E8FC48F20803BE
:104D680007A94F480793089509940A94FBF7DEFCB6
:104D7800302307A949480793089409952027FBF78A
:104D8800D5FC4448079707A908940995FBF7CEFC7A
:104D98004448454B046180E818007F238360FF2363
:104DA800C36044618461FCF7F7FC00B1FEE73F4B48
:104DB8003F4A98604FF4164883E80401D8601861A8
:104DC8004FF00C089861D8611846C3F81480FDF7B5
:104DD80055FB00B1FEE73748374B0360FBF76CFC27
:104DE800044600B1FEE7354B354A986083E8140065
:104DF8000322D860186158619A61FFF7C9FD3148EC
:104E0800314B84604FF4165C80E80810C46004617C
:104E1800C0F814808461C461FDF730FB00B1FEE77F
:104E28002A4B2B4A98604FF4E13ED860186198618C
:104E3800D861184683E80440C3F81480FDF71EFBC8
:104E480000B1FEE7234B244A98604FF49644D8609B
:104E580018619861D861184683E81400C3F8148073
:104E6800FDF70CFB00B1FEE71C4B1D491D4A98607D
:104E780083E80600D8604FF4804258619861D86191
:104E8800186218461A61FBF713FF044660B3FEE781
:104E980000380240001002400008024000040240AE
:104EA800000002406C11002000280040140E002071
:104EB800004800402C0D002000300240A4110020C2
:104EC800002C01401013002000140140EC100020B9
:104ED800001001408815002000440040540E0020B6
:104EE80000540040A0860100024610212248FBF72A
:104EF80003FD2A4610212048FBF7FEFC224610211C
:104F08001D48FBF7F9FC224639461B48FBF7F4FC21
:104F180022464FF400511948FBF7EEFC2246314671
:104F28001748FBF7E9FC224604211548FBF7E4FC87
:104F3800224608211248FBF7DFFC224610211048C0
:104F4800FBF7DAFC2A4604210D48FBF7D5FC2A4674
:104F580008210B48FBF7D0FC2A4610210848FBF72C
:104F6800CBFC2A4607490848FEF732FE074B187063
:104F780003F09CFCFCE700BF000C02400008024064
:104F880000100240C5080020580400208C060020AC
:104F9800034B1A6812B11A68013A1A60704700BFC9
:104FA800C80E0020034B1A6812B11A68013A1A6039
:104FB800704700BFD0150020034B1A6812B11A6859
:104FC800013A1A60704700BF0C0E0020034B1A68A4
:104FD80012B11A68013A1A60704700BF84150020A0
:104FE800034B1A6812B11A68013A1A60704700BF79
:104FF8009C1100200023034A194699540133A02B21
:10500800FBD17047113C00200023044A19469954EB
:105018000133B3F5AF7FFAD1704700BFF802002023
:105028000023034A194699540133A02BFBD170473A
:10503800FE550020034B00221A705A709A70DA70DD
:105048009A717047C11000200023034A19469954E9
:105058000133A02BFBD17047501300200023034AD3
:10506800194699540133A02BFBD17047F257002001
:105078000023034A194699540133A02BFBD17047EA
:10508800E00F00200023034A194699540133A02B4E
:10509800FBD17047045500200023034A1946995450
:1050A8000133A02BFBD170473C1400200023034A96
:1050B800194699540133952BFBD17047C53C002004
:1050C8000023034A194699540133312BFBD1704709
:1050D8002C11002010B5064BDA78191D0432002077
:1050E800CC1AA24200DC10BD11F8014B2044F7E7AE
:1050F800113C002010B5064B5A79991D0632002044
:10510800CC1AA24200DC10BD11F8014B2044F7E78D
:10511800113C002008B5FFF777FF12210246BDE8D1
:1051280008400148FFF754BBD695000808B5FFF7BB
:105138006BFF64210246BDE808400148FFF748BB01
:10514800DF95000808B5FFF75FFF13210246BDE8A9
:1051580008400148FFF73CBBF195000830B5064A06
:1051680000F11803091A441810F8015B42F824509A
:105178009842F8D130BD00BF201500200C4B1860B4
:105188001A68D2B21A600B4A19681170C0F3072165
:10519800196019685170C0F307411960000E196849
:1051A80018601B68D370002391701371704700BF9B
:1051B8001C010020C83E00200023034A19469954C8
:1051C80001330A2BFBD17047225400208B4B1B78EC
:1051D800022B7BD18A4B1B68013B082B31D8DFE8B7
:1051E80013F08700AD00B30009001000310036004D
:1051F80009015500834B1A78834B5A700822DA71DB
:105208007047824B824A1978824B12781B780B447C
:105218001344814A12781344804A12781344804A0E
:10522800127813447F4A127813447F4A1278134441
:105238007E4A12681344744ADBB253709170082393
:10524800D3717047744B1A786F4B9A70D6E7714BCD
:10525800724A19786E4B12781B780B441344704AC3
:10526800127813446F4A127813446F4A1278134421
:10527800644A127813446E4A127813446B4A1268CF
:105288001344614ADBB29370D170D8E7604B664A29
:105298001978634B12781B780B441344614A1278CF
:1052A8001344584A12781344614A127813445A4AEC
:1052B80012781344554A127813445C4A126813440E
:1052C800514ADBB2D37091710323B9E7032BB8D1EC
:1052D8004B4B1B68013B082BB3D8DFE813F00900E0
:1052E8002F003500540059006F0075008B00AB008B
:1052F8004C4B4D491A78444B09781A701A780A446D
:10530800D2B240495A705A7809780A44484909780B
:105318000A44D2B240499A709A7809780A443B49BB
:1053280009780A44D2B23D49DA70DA7809780A4431
:10533800384909780A44D2B29A715FE73A4B1A7829
:10534800314B1A705A707047394B324A19782F4BC3
:1053580012781B780B4413442D4A12781344294AB7
:10536800127813442C4A127813442C4A12781344A6
:105378002B4A127813442D4A12681344224ADBB28E
:105388001370517070471F4B1A781F4B5A705CE7A7
:105398001E4B1F481978254B00781A781D4B1B782F
:1053A8000B4403441C48007803441C480078034419
:1053B8001B480078034403EB42033CE7164B1A787A
:1053C800114B9A70DA7019E7124B194A1978154B74
:1053D80012781B7813440E4A12780B441344124A6D
:1053E80012781344074A127813440C4A127813446B
:1053F8000B4A41E7094B1A78034BE3E72253002095
:10540800D4390020F8390020C1100020003A0020CB
:10541800210000205B3D0020063C0020103C0020BD
:1054280020000020C03700205C3D00201C00002028
:10543800F11500200A4B0B4A19780B4B12781B7890
:1054480013440A4A12781344094A12781344094A41
:1054580012781344084A127813440B44074A2AE77F
:1054680021000020F1150020C0370020003A00205C
:105478005C3D0020F8390020063C00202000002078
:105488002DE9F843474D2B68962B40F38980464C0D
:10549800464E2368012B11D1454B1A68012A0DD1BC
:1054A8003268012A434A11780CBF41F0010101F02A
:1054B8000601117000221A600223236023683E4F00
:1054C800022B11D13D4B1A68012A0DD13A68012AE5
:1054D800384A11780CBF41F0020101F00501117042
:1054E80000221A60032323602368DFF8E080032B7F
:1054F80012D1334B1A68012A0ED1D8F80020012A9C
:105508002C4A11780CBF41F0040101F0030111701D
:1055180000221A60042323602368DFF8B490042B68
:1055280012D1284B1A68012A0ED1D9F80020012A75
:10553800204A11780CBF41F0080101F007011170F1
:1055480000221A60052323601F4B1B78032B236856
:1055580024D0042BC4BF01232360FFF763FA236818
:10556800012B0BD1124A1360002333603B60C8F84B
:105578000030C9F800302B60BDE8F883022B03D156
:105588000E4B01221A60EFE7032B02D101220C4BCC
:10559800F8E7042BE8D101220A4BF3E7032BD9E7FC
:1055A800BDE8F883500100200C0000209000002086
:1055B8009400002080000020980000209C0000201B
:1055C800A4000020AC000020F1000020A000002072
:1055D800A80000202DE9F0415649574A0B79574E4B
:1055E8000879574CD6F800E0564D03F0F0031360E5
:1055F8004A79497902F0F0022260534C58405140F0
:10560800BEF1010F286021607BD0504E3768012F12
:1056180003D14F4EB2604F4EB2604F4E3668012EE6
:1056280009D1DFF82CC10001CCF80C00DFF824C147
:105638002860CCF80C0049480068012809D1DFF837
:1056480010C10901CCF81010DFF808C12160CCF8AE
:105658001010BEF1020F07D13E49DFF8F4C04B60CD
:1056680043EA1311CCF80410022F07D13949DFF8A7
:10567800E0C08A6042EA1211CCF80810022E0CD160
:105688002968DFF8D0804FEA011C41EA0C01C8F80C
:105698000CC0DFF8BCC0CCF80C1002280CD1216873
:1056A800DFF8B0804FEA011C41EA0C01C8F810C0CD
:1056B800DFF89CC0CCF81010BEF1030F05D12449C7
:1056C80043EA13134B6023494B60032F05D1204B4A
:1056D80042EA12129A601F4B9A60032E06D12B6879
:1056E8001B4A43EA0313D3601A4AD360032806D13E
:1056F8002368174A43EA03131361164A1361BDE886
:10570800F081134E164F7360124E73607E68B34279
:105718007FF47BAF302B7FF478AFBE68302EEED0AD
:10572800FE68302EEBD03E69302E7FF46EAFBDE8B8
:10573800F08100BFC1100020EC15002024160020C5
:1057480084360020083C00205C16002040360020EB
:10575800603D00200C360020FC390020F83B00207A
:1057680020370020F8B5674D2B68012B13D1664C04
:10577800664B67490026324620461E6003F05AFAF7
:10578800644B48B91860FFF7EFF9FFF77BFCFFF7A8
:1057980083FC00232B60F8BD06381860FFF714F966
:1057A80031465D485D4FFFF7D9FC08225C495D48EA
:1057B800FAF794FF5C4B18601A685C4B1A601A6819
:1057C800196818681B68D2B21B0EC1F30721C0F311
:1057D80007403A707970B870FB70A77A9F4240F022
:1057E8008E80E37A834240F08A80237B8B4240F0AC
:1057F8008680637B934240F082806379012B1BD1C2
:1058080023784B4A4B48FF2B08BF334653606278D6
:10581800494BFF2A08BF32465A60484BA2785A6063
:10582800474BE2785A60474B22795A600821FBF7C8
:1058380068F8454B01221A606379022B1BD1227844
:105848003B4B4248FF2A08BF00229A6062783A4BD5
:10585800FF2A08BF00229A60384BA2789A60384B1A
:10586800E2789A60374B22799A600821FBF749F869
:10587800374B01221A606379032B1BD122782C4BFA
:105888002C48FF2A08BF0022DA6062782A4BFF2AD8
:1058980008BF0022DA60294BA278DA60284BE27848
:1058A800DA60284B2279DA600421FBF72AF8294BC1
:1058B80001221A606379042B1BD122781C4B2648DD
:1058C800FF2A08BF0022DA6062781B4BFF2A08BF54
:1058D8000022DA60194BA2781A61194BE2781A6132
:1058E800184B22791A610821FBF70BF81B4B012290
:1058F8001A6008211A48FBF704F8FFF76BFE00232B
:105908002B6040E7C00E00200455002088000020CE
:10591800FB950008CC1500205C370020DC0F002028
:10592800201500202C0D00207C0000208400002081
:105938002037002000080240683600204437002045
:10594800C43700200C160020900000200000024000
:1059580098000020A000002000040240A8000020B9
:105968000010024030B50B490B1804225C78002364
:105978000434A24204DBB3F5807F08DC184630BD4E
:1059880015180D44013215F8025C2B44F1E7A3F514
:105998008073F0E7F257002030B50B490B1804224A
:1059A8005C7800230434A24204DBB3F5807F08DC72
:1059B800184630BD15180D44013215F8025C2B4409
:1059C800F1E7A3F58073F0E7EC58002030B50A49F9
:1059D8000B1804225C7800230434A24204DB581C10
:1059E800000AA3EB002030BD85180D44013215F8DC
:1059F800025C2B44F1E700BF50130020F8B5514E6C
:105A0800514D5248524C00223146FBF7F7FF002215
:105A180029464E48FCF71AF87E232370637000234A
:105A2800A3701523E3704B4B1B7823714A4B1B78EB
:105A380063714A4B1B78A3710923E371337823728E
:105A480073786372AB78A3726B78E3720C23237359
:105A580031236373A373E37323746374A374E374CC
:105A680023756375A375E3752376FFF733FB7D23F1
:105A7800A376E3763A4B1B68C043012B607641F26C
:105A880088334FF01B0221464DD13648FCF724FDE0
:105A98003549344842F6FF732822334C334FFCF71C
:105AA80078FD4FF49670FAF789FD002230492046B8
:105AB80003F0C0F804203860FFF788FF63792344B7
:105AC8009B791844FF2837D108233B60A37A3370A9
